{
  "contractName": "ProductAuth",
  "abi": [
    {
      "inputs": [],
      "stateMutability": "nonpayable",
      "type": "constructor"
    },
    {
      "anonymous": false,
      "inputs": [
        {
          "indexed": true,
          "internalType": "address",
          "name": "owner",
          "type": "address"
        },
        {
          "indexed": true,
          "internalType": "address",
          "name": "approved",
          "type": "address"
        },
        {
          "indexed": true,
          "internalType": "uint256",
          "name": "tokenId",
          "type": "uint256"
        }
      ],
      "name": "Approval",
      "type": "event"
    },
    {
      "anonymous": false,
      "inputs": [
        {
          "indexed": true,
          "internalType": "address",
          "name": "owner",
          "type": "address"
        },
        {
          "indexed": true,
          "internalType": "address",
          "name": "operator",
          "type": "address"
        },
        {
          "indexed": false,
          "internalType": "bool",
          "name": "approved",
          "type": "bool"
        }
      ],
      "name": "ApprovalForAll",
      "type": "event"
    },
    {
      "anonymous": false,
      "inputs": [
        {
          "indexed": true,
          "internalType": "address",
          "name": "previousOwner",
          "type": "address"
        },
        {
          "indexed": true,
          "internalType": "address",
          "name": "newOwner",
          "type": "address"
        }
      ],
      "name": "OwnershipTransferred",
      "type": "event"
    },
    {
      "anonymous": false,
      "inputs": [
        {
          "indexed": true,
          "internalType": "uint256",
          "name": "tokenId",
          "type": "uint256"
        },
        {
          "indexed": false,
          "internalType": "bytes32",
          "name": "name",
          "type": "bytes32"
        },
        {
          "indexed": false,
          "internalType": "bytes32",
          "name": "manufacturer",
          "type": "bytes32"
        },
        {
          "indexed": false,
          "internalType": "uint256",
          "name": "timestamp",
          "type": "uint256"
        }
      ],
      "name": "ProductCreated",
      "type": "event"
    },
    {
      "anonymous": false,
      "inputs": [
        {
          "indexed": true,
          "internalType": "uint256",
          "name": "tokenId",
          "type": "uint256"
        },
        {
          "indexed": false,
          "internalType": "string",
          "name": "history",
          "type": "string"
        }
      ],
      "name": "ProductUpdated",
      "type": "event"
    },
    {
      "anonymous": false,
      "inputs": [
        {
          "indexed": true,
          "internalType": "address",
          "name": "from",
          "type": "address"
        },
        {
          "indexed": true,
          "internalType": "address",
          "name": "to",
          "type": "address"
        },
        {
          "indexed": true,
          "internalType": "uint256",
          "name": "tokenId",
          "type": "uint256"
        }
      ],
      "name": "Transfer",
      "type": "event"
    },
    {
      "inputs": [
        {
          "internalType": "address",
          "name": "to",
          "type": "address"
        },
        {
          "internalType": "uint256",
          "name": "tokenId",
          "type": "uint256"
        }
      ],
      "name": "approve",
      "outputs": [],
      "stateMutability": "nonpayable",
      "type": "function"
    },
    {
      "inputs": [
        {
          "internalType": "address",
          "name": "owner",
          "type": "address"
        }
      ],
      "name": "balanceOf",
      "outputs": [
        {
          "internalType": "uint256",
          "name": "",
          "type": "uint256"
        }
      ],
      "stateMutability": "view",
      "type": "function"
    },
    {
      "inputs": [
        {
          "internalType": "uint256",
          "name": "tokenId",
          "type": "uint256"
        }
      ],
      "name": "getApproved",
      "outputs": [
        {
          "internalType": "address",
          "name": "",
          "type": "address"
        }
      ],
      "stateMutability": "view",
      "type": "function"
    },
    {
      "inputs": [
        {
          "internalType": "address",
          "name": "owner",
          "type": "address"
        },
        {
          "internalType": "address",
          "name": "operator",
          "type": "address"
        }
      ],
      "name": "isApprovedForAll",
      "outputs": [
        {
          "internalType": "bool",
          "name": "",
          "type": "bool"
        }
      ],
      "stateMutability": "view",
      "type": "function"
    },
    {
      "inputs": [],
      "name": "name",
      "outputs": [
        {
          "internalType": "string",
          "name": "",
          "type": "string"
        }
      ],
      "stateMutability": "view",
      "type": "function"
    },
    {
      "inputs": [],
      "name": "owner",
      "outputs": [
        {
          "internalType": "address",
          "name": "",
          "type": "address"
        }
      ],
      "stateMutability": "view",
      "type": "function"
    },
    {
      "inputs": [
        {
          "internalType": "uint256",
          "name": "tokenId",
          "type": "uint256"
        }
      ],
      "name": "ownerOf",
      "outputs": [
        {
          "internalType": "address",
          "name": "",
          "type": "address"
        }
      ],
      "stateMutability": "view",
      "type": "function"
    },
    {
      "inputs": [
        {
          "internalType": "uint256",
          "name": "",
          "type": "uint256"
        }
      ],
      "name": "products",
      "outputs": [
        {
          "internalType": "bytes32",
          "name": "name",
          "type": "bytes32"
        },
        {
          "internalType": "bytes32",
          "name": "manufacturer",
          "type": "bytes32"
        },
        {
          "internalType": "uint256",
          "name": "timestamp",
          "type": "uint256"
        },
        {
          "internalType": "enum ProductAuth.ProductStatus",
          "name": "status",
          "type": "uint8"
        }
      ],
      "stateMutability": "view",
      "type": "function"
    },
    {
      "inputs": [],
      "name": "renounceOwnership",
      "outputs": [],
      "stateMutability": "nonpayable",
      "type": "function"
    },
    {
      "inputs": [
        {
          "internalType": "address",
          "name": "from",
          "type": "address"
        },
        {
          "internalType": "address",
          "name": "to",
          "type": "address"
        },
        {
          "internalType": "uint256",
          "name": "tokenId",
          "type": "uint256"
        }
      ],
      "name": "safeTransferFrom",
      "outputs": [],
      "stateMutability": "nonpayable",
      "type": "function"
    },
    {
      "inputs": [
        {
          "internalType": "address",
          "name": "from",
          "type": "address"
        },
        {
          "internalType": "address",
          "name": "to",
          "type": "address"
        },
        {
          "internalType": "uint256",
          "name": "tokenId",
          "type": "uint256"
        },
        {
          "internalType": "bytes",
          "name": "data",
          "type": "bytes"
        }
      ],
      "name": "safeTransferFrom",
      "outputs": [],
      "stateMutability": "nonpayable",
      "type": "function"
    },
    {
      "inputs": [
        {
          "internalType": "address",
          "name": "operator",
          "type": "address"
        },
        {
          "internalType": "bool",
          "name": "approved",
          "type": "bool"
        }
      ],
      "name": "setApprovalForAll",
      "outputs": [],
      "stateMutability": "nonpayable",
      "type": "function"
    },
    {
      "inputs": [
        {
          "internalType": "bytes4",
          "name": "interfaceId",
          "type": "bytes4"
        }
      ],
      "name": "supportsInterface",
      "outputs": [
        {
          "internalType": "bool",
          "name": "",
          "type": "bool"
        }
      ],
      "stateMutability": "view",
      "type": "function"
    },
    {
      "inputs": [],
      "name": "symbol",
      "outputs": [
        {
          "internalType": "string",
          "name": "",
          "type": "string"
        }
      ],
      "stateMutability": "view",
      "type": "function"
    },
    {
      "inputs": [
        {
          "internalType": "uint256",
          "name": "tokenId",
          "type": "uint256"
        }
      ],
      "name": "tokenURI",
      "outputs": [
        {
          "internalType": "string",
          "name": "",
          "type": "string"
        }
      ],
      "stateMutability": "view",
      "type": "function"
    },
    {
      "inputs": [
        {
          "internalType": "address",
          "name": "from",
          "type": "address"
        },
        {
          "internalType": "address",
          "name": "to",
          "type": "address"
        },
        {
          "internalType": "uint256",
          "name": "tokenId",
          "type": "uint256"
        }
      ],
      "name": "transferFrom",
      "outputs": [],
      "stateMutability": "nonpayable",
      "type": "function"
    },
    {
      "inputs": [
        {
          "internalType": "address",
          "name": "newOwner",
          "type": "address"
        }
      ],
      "name": "transferOwnership",
      "outputs": [],
      "stateMutability": "nonpayable",
      "type": "function"
    },
    {
      "inputs": [
        {
          "internalType": "bytes32",
          "name": "_name",
          "type": "bytes32"
        },
        {
          "internalType": "bytes32",
          "name": "_manufacturer",
          "type": "bytes32"
        }
      ],
      "name": "createProduct",
      "outputs": [],
      "stateMutability": "nonpayable",
      "type": "function"
    },
    {
      "inputs": [
        {
          "internalType": "uint256",
          "name": "_tokenId",
          "type": "uint256"
        },
        {
          "internalType": "string",
          "name": "_history",
          "type": "string"
        }
      ],
      "name": "updateProduct",
      "outputs": [],
      "stateMutability": "nonpayable",
      "type": "function"
    },
    {
      "inputs": [
        {
          "internalType": "uint256",
          "name": "_tokenId",
          "type": "uint256"
        }
      ],
      "name": "verifyProduct",
      "outputs": [
        {
          "internalType": "bool",
          "name": "",
          "type": "bool"
        }
      ],
      "stateMutability": "view",
      "type": "function"
    }
  ],
  "bytecode": "0x60806040523480156200001157600080fd5b506040518060400160405280600c81526020017f50726f64756374546f6b656e00000000000000000000000000000000000000008152506040518060400160405280600381526020017f50544b000000000000000000000000000000000000000000000000000000000081525081600090816200008f91906200041a565b508060019081620000a191906200041a565b505050620000c4620000b8620000d260201b60201c565b620000da60201b60201c565b600160078190555062000501565b600033905090565b6000600660009054906101000a900473ffffffffffffffffffffffffffffffffffffffff16905081600660006101000a81548173ffffffffffffffffffffffffffffffffffffffff021916908373ffffffffffffffffffffffffffffffffffffffff1602179055508173ffffffffffffffffffffffffffffffffffffffff168173ffffffffffffffffffffffffffffffffffffffff167f8be0079c531659141344cd1fd0a4f28419497f9722a3daafe3b4186f6b6457e060405160405180910390a35050565b600081519050919050565b7f4e487b7100000000000000000000000000000000000000000000000000000000600052604160045260246000fd5b7f4e487b7100000000000000000000000000000000000000000000000000000000600052602260045260246000fd5b600060028204905060018216806200022257607f821691505b602082108103620002385762000237620001da565b5b50919050565b60008190508160005260206000209050919050565b60006020601f8301049050919050565b600082821b905092915050565b600060088302620002a27fffffffffffffffffffffffffffffffffffffffffffffffffffffffffffffffff8262000263565b620002ae868362000263565b95508019841693508086168417925050509392505050565b6000819050919050565b6000819050919050565b6000620002fb620002f5620002ef84620002c6565b620002d0565b620002c6565b9050919050565b6000819050919050565b6200031783620002da565b6200032f620003268262000302565b84845462000270565b825550505050565b600090565b6200034662000337565b620003538184846200030c565b505050565b5b818110156200037b576200036f6000826200033c565b60018101905062000359565b5050565b601f821115620003ca5762000394816200023e565b6200039f8462000253565b81016020851015620003af578190505b620003c7620003be8562000253565b83018262000358565b50505b505050565b600082821c905092915050565b6000620003ef60001984600802620003cf565b1980831691505092915050565b60006200040a8383620003dc565b9150826002028217905092915050565b6200042582620001a0565b67ffffffffffffffff811115620004415762000440620001ab565b5b6200044d825462000209565b6200045a8282856200037f565b600060209050601f8311600181146200049257600084156200047d578287015190505b620004898582620003fc565b865550620004f9565b601f198416620004a2866200023e565b60005b82811015620004cc57848901518255600182019150602085019450602081019050620004a5565b86831015620004ec5784890151620004e8601f891682620003dc565b8355505b6001600288020188555050505b505050505050565b612f8880620005116000396000f3fe608060405234801561001057600080fd5b506004361061012c5760003560e01c8063715018a6116100ad578063a69e060c11610071578063a69e060c14610344578063b88d4fde14610360578063c87b56dd1461037c578063e985e9c5146103ac578063f2fde38b146103dc5761012c565b8063715018a6146102af5780637acc0b20146102b95780638da5cb5b146102ec57806395d89b411461030a578063a22cb465146103285761012c565b806342842e0e116100f457806342842e0e146101e7578063522ae8b614610203578063524e84621461021f5780636352211e1461024f57806370a082311461027f5761012c565b806301ffc9a71461013157806306fdde0314610161578063081812fc1461017f578063095ea7b3146101af57806323b872dd146101cb575b600080fd5b61014b60048036038101906101469190611dd6565b6103f8565b6040516101589190611e1e565b60405180910390f35b6101696104da565b6040516101769190611ec9565b60405180910390f35b61019960048036038101906101949190611f21565b61056c565b6040516101a69190611f8f565b60405180910390f35b6101c960048036038101906101c49190611fd6565b6105b2565b005b6101e560048036038101906101e09190612016565b6106c9565b005b61020160048036038101906101fc9190612016565b610729565b005b61021d6004803603810190610218919061219e565b610749565b005b61023960048036038101906102349190611f21565b610824565b6040516102469190611e1e565b60405180910390f35b61026960048036038101906102649190611f21565b610877565b6040516102769190611f8f565b60405180910390f35b610299600480360381019061029491906121fa565b6108fd565b6040516102a69190612236565b60405180910390f35b6102b76109b4565b005b6102d360048036038101906102ce9190611f21565b6109c8565b6040516102e394939291906122e1565b60405180910390f35b6102f4610a05565b6040516103019190611f8f565b60405180910390f35b610312610a2f565b60405161031f9190611ec9565b60405180910390f35b610342600480360381019061033d9190612352565b610ac1565b005b61035e600480360381019061035991906123be565b610ad7565b005b61037a6004803603810190610375919061249f565b610c08565b005b61039660048036038101906103919190611f21565b610c6a565b6040516103a39190611ec9565b60405180910390f35b6103c660048036038101906103c19190612522565b610cd2565b6040516103d39190611e1e565b60405180910390f35b6103f660048036038101906103f191906121fa565b610d66565b005b60007f80ac58cd000000000000000000000000000000000000000000000000000000007bffffffffffffffffffffffffffffffffffffffffffffffffffffffff1916827bffffffffffffffffffffffffffffffffffffffffffffffffffffffff191614806104c357507f5b5e139f000000000000000000000000000000000000000000000000000000007bffffffffffffffffffffffffffffffffffffffffffffffffffffffff1916827bffffffffffffffffffffffffffffffffffffffffffffffffffffffff1916145b806104d357506104d282610de9565b5b9050919050565b6060600080546104e990612591565b80601f016020809104026020016040519081016040528092919081815260200182805461051590612591565b80156105625780601f1061053757610100808354040283529160200191610562565b820191906000526020600020905b81548152906001019060200180831161054557829003601f168201915b5050505050905090565b600061057782610e53565b6004600083815260200190815260200160002060009054906101000a900473ffffffffffffffffffffffffffffffffffffffff169050919050565b60006105bd82610877565b90508073ffffffffffffffffffffffffffffffffffffffff168373ffffffffffffffffffffffffffffffffffffffff160361062d576040517f08c379a000000000000000000000000000000000000000000000000000000000815260040161062490612634565b60405180910390fd5b8073ffffffffffffffffffffffffffffffffffffffff1661064c610e9e565b73ffffffffffffffffffffffffffffffffffffffff16148061067b575061067a81610675610e9e565b610cd2565b5b6106ba576040517f08c379a00000000000000000000000000000000000000000000000000000000081526004016106b1906126c6565b60405180910390fd5b6106c48383610ea6565b505050565b6106da6106d4610e9e565b82610f5f565b610719576040517f08c379a000000000000000000000000000000000000000000000000000000000815260040161071090612758565b60405180910390fd5b610724838383610ff4565b505050565b61074483838360405180602001604052806000815250610c08565b505050565b6107516112ed565b61075961136b565b610762826113ba565b6107a1576040517f08c379a0000000000000000000000000000000000000000000000000000000008152600401610798906127c4565b60405180910390fd5b60016008600084815260200190815260200160002060030160006101000a81548160ff021916908360018111156107db576107da61226a565b5b0217905550817fdad7092ee1ca215307c34b5dd865bb1f9be7e1f0110d230eaefd78fa4742903e826040516108109190611ec9565b60405180910390a26108206113fb565b5050565b60006001808111156108395761083861226a565b5b6008600084815260200190815260200160002060030160009054906101000a900460ff16600181111561086f5761086e61226a565b5b149050919050565b60008061088383611405565b9050600073ffffffffffffffffffffffffffffffffffffffff168173ffffffffffffffffffffffffffffffffffffffff16036108f4576040517f08c379a00000000000000000000000000000000000000000000000000000000081526004016108eb90612830565b60405180910390fd5b80915050919050565b60008073ffffffffffffffffffffffffffffffffffffffff168273ffffffffffffffffffffffffffffffffffffffff160361096d576040517f08c379a0000000000000000000000000000000000000000000000000000000008152600401610964906128c2565b60405180910390fd5b600360008373ffffffffffffffffffffffffffffffffffffffff1673ffffffffffffffffffffffffffffffffffffffff168152602001908152602001600020549050919050565b6109bc6112ed565b6109c66000611442565b565b60086020528060005260406000206000915090508060000154908060010154908060020154908060030160009054906101000a900460ff16905084565b6000600660009054906101000a900473ffffffffffffffffffffffffffffffffffffffff16905090565b606060018054610a3e90612591565b80601f0160208091040260200160405190810160405280929190818152602001828054610a6a90612591565b8015610ab75780601f10610a8c57610100808354040283529160200191610ab7565b820191906000526020600020905b815481529060010190602001808311610a9a57829003601f168201915b5050505050905090565b610ad3610acc610e9e565b8383611508565b5050565b610adf6112ed565b610ae761136b565b6000610aff600160095461167490919063ffffffff16565b9050610b0b338261168a565b604051806080016040528084815260200183815260200142815260200160006001811115610b3c57610b3b61226a565b5b8152506008600083815260200190815260200160002060008201518160000155602082015181600101556040820151816002015560608201518160030160006101000a81548160ff02191690836001811115610b9b57610b9a61226a565b5b0217905550905050610bb9600160095461167490919063ffffffff16565b600981905550807f5a056253511ccc8373f4b28e50b57c9270fc0feafdf5e4e0dc6910a5a9eb4dc8848442604051610bf3939291906128e2565b60405180910390a250610c046113fb565b5050565b610c19610c13610e9e565b83610f5f565b610c58576040517f08c379a0000000000000000000000000000000000000000000000000000000008152600401610c4f90612758565b60405180910390fd5b610c64848484846116a8565b50505050565b6060610c7582610e53565b6000610c7f611704565b90506000815111610c9f5760405180602001604052806000815250610cca565b80610ca98461171b565b604051602001610cba929190612955565b6040516020818303038152906040525b915050919050565b6000600560008473ffffffffffffffffffffffffffffffffffffffff1673ffffffffffffffffffffffffffffffffffffffff16815260200190815260200160002060008373ffffffffffffffffffffffffffffffffffffffff1673ffffffffffffffffffffffffffffffffffffffff16815260200190815260200160002060009054906101000a900460ff16905092915050565b610d6e6112ed565b600073ffffffffffffffffffffffffffffffffffffffff168173ffffffffffffffffffffffffffffffffffffffff1603610ddd576040517f08c379a0000000000000000000000000000000000000000000000000000000008152600401610dd4906129eb565b60405180910390fd5b610de681611442565b50565b60007f01ffc9a7000000000000000000000000000000000000000000000000000000007bffffffffffffffffffffffffffffffffffffffffffffffffffffffff1916827bffffffffffffffffffffffffffffffffffffffffffffffffffffffff1916149050919050565b610e5c816113ba565b610e9b576040517f08c379a0000000000000000000000000000000000000000000000000000000008152600401610e9290612830565b60405180910390fd5b50565b600033905090565b816004600083815260200190815260200160002060006101000a81548173ffffffffffffffffffffffffffffffffffffffff021916908373ffffffffffffffffffffffffffffffffffffffff160217905550808273ffffffffffffffffffffffffffffffffffffffff16610f1983610877565b73ffffffffffffffffffffffffffffffffffffffff167f8c5be1e5ebec7d5bd14f71427d1e84f3dd0314c0f7b2291e5b200ac8c7c3b92560405160405180910390a45050565b600080610f6b83610877565b90508073ffffffffffffffffffffffffffffffffffffffff168473ffffffffffffffffffffffffffffffffffffffff161480610fad5750610fac8185610cd2565b5b80610feb57508373ffffffffffffffffffffffffffffffffffffffff16610fd38461056c565b73ffffffffffffffffffffffffffffffffffffffff16145b91505092915050565b8273ffffffffffffffffffffffffffffffffffffffff1661101482610877565b73ffffffffffffffffffffffffffffffffffffffff161461106a576040517f08c379a000000000000000000000000000000000000000000000000000000000815260040161106190612a7d565b60405180910390fd5b600073ffffffffffffffffffffffffffffffffffffffff168273ffffffffffffffffffffffffffffffffffffffff16036110d9576040517f08c379a00000000000000000000000000000000000000000000000000000000081526004016110d090612b0f565b60405180910390fd5b6110e683838360016117e9565b8273ffffffffffffffffffffffffffffffffffffffff1661110682610877565b73ffffffffffffffffffffffffffffffffffffffff161461115c576040517f08c379a000000000000000000000000000000000000000000000000000000000815260040161115390612a7d565b60405180910390fd5b6004600082815260200190815260200160002060006101000a81549073ffffffffffffffffffffffffffffffffffffffff02191690556001600360008573ffffffffffffffffffffffffffffffffffffffff1673ffffffffffffffffffffffffffffffffffffffff168152602001908152602001600020600082825403925050819055506001600360008473ffffffffffffffffffffffffffffffffffffffff1673ffffffffffffffffffffffffffffffffffffffff16815260200190815260200160002060008282540192505081905550816002600083815260200190815260200160002060006101000a81548173ffffffffffffffffffffffffffffffffffffffff021916908373ffffffffffffffffffffffffffffffffffffffff160217905550808273ffffffffffffffffffffffffffffffffffffffff168473ffffffffffffffffffffffffffffffffffffffff167fddf252ad1be2c89b69c2b068fc378daa952ba7f163c4a11628f55a4df523b3ef60405160405180910390a46112e883838360016117ef565b505050565b6112f5610e9e565b73ffffffffffffffffffffffffffffffffffffffff16611313610a05565b73ffffffffffffffffffffffffffffffffffffffff1614611369576040517f08c379a000000000000000000000000000000000000000000000000000000000815260040161136090612b7b565b60405180910390fd5b565b6002600754036113b0576040517f08c379a00000000000000000000000000000000000000000000000000000000081526004016113a790612be7565b60405180910390fd5b6002600781905550565b60008073ffffffffffffffffffffffffffffffffffffffff166113dc83611405565b73ffffffffffffffffffffffffffffffffffffffff1614159050919050565b6001600781905550565b60006002600083815260200190815260200160002060009054906101000a900473ffffffffffffffffffffffffffffffffffffffff169050919050565b6000600660009054906101000a900473ffffffffffffffffffffffffffffffffffffffff16905081600660006101000a81548173ffffffffffffffffffffffffffffffffffffffff021916908373ffffffffffffffffffffffffffffffffffffffff1602179055508173ffffffffffffffffffffffffffffffffffffffff168173ffffffffffffffffffffffffffffffffffffffff167f8be0079c531659141344cd1fd0a4f28419497f9722a3daafe3b4186f6b6457e060405160405180910390a35050565b8173ffffffffffffffffffffffffffffffffffffffff168373ffffffffffffffffffffffffffffffffffffffff1603611576576040517f08c379a000000000000000000000000000000000000000000000000000000000815260040161156d90612c53565b60405180910390fd5b80600560008573ffffffffffffffffffffffffffffffffffffffff1673ffffffffffffffffffffffffffffffffffffffff16815260200190815260200160002060008473ffffffffffffffffffffffffffffffffffffffff1673ffffffffffffffffffffffffffffffffffffffff16815260200190815260200160002060006101000a81548160ff0219169083151502179055508173ffffffffffffffffffffffffffffffffffffffff168373ffffffffffffffffffffffffffffffffffffffff167f17307eab39ab6107e8899845ad3d59bd9653f200f220920489ca2b5937696c31836040516116679190611e1e565b60405180910390a3505050565b600081836116829190612ca2565b905092915050565b6116a48282604051806020016040528060008152506117f5565b5050565b6116b3848484610ff4565b6116bf84848484611850565b6116fe576040517f08c379a00000000000000000000000000000000000000000000000000000000081526004016116f590612d48565b60405180910390fd5b50505050565b606060405180602001604052806000815250905090565b60606000600161172a846119d7565b01905060008167ffffffffffffffff81111561174957611748612073565b5b6040519080825280601f01601f19166020018201604052801561177b5781602001600182028036833780820191505090505b509050600082602001820190505b6001156117de578080600190039150507f3031323334353637383961626364656600000000000000000000000000000000600a86061a8153600a85816117d2576117d1612d68565b5b04945060008503611789575b819350505050919050565b50505050565b50505050565b6117ff8383611b2a565b61180c6000848484611850565b61184b576040517f08c379a000000000000000000000000000000000000000000000000000000000815260040161184290612d48565b60405180910390fd5b505050565b60006118718473ffffffffffffffffffffffffffffffffffffffff16611d47565b156119ca578373ffffffffffffffffffffffffffffffffffffffff1663150b7a0261189a610e9e565b8786866040518563ffffffff1660e01b81526004016118bc9493929190612dec565b6020604051808303816000875af19250505080156118f857506040513d601f19601f820116820180604052508101906118f59190612e4d565b60015b61197a573d8060008114611928576040519150601f19603f3d011682016040523d82523d6000602084013e61192d565b606091505b506000815103611972576040517f08c379a000000000000000000000000000000000000000000000000000000000815260040161196990612d48565b60405180910390fd5b805181602001fd5b63150b7a0260e01b7bffffffffffffffffffffffffffffffffffffffffffffffffffffffff1916817bffffffffffffffffffffffffffffffffffffffffffffffffffffffff1916149150506119cf565b600190505b949350505050565b600080600090507a184f03e93ff9f4daa797ed6e38ed64bf6a1f0100000000000000008310611a35577a184f03e93ff9f4daa797ed6e38ed64bf6a1f0100000000000000008381611a2b57611a2a612d68565b5b0492506040810190505b6d04ee2d6d415b85acef81000000008310611a72576d04ee2d6d415b85acef81000000008381611a6857611a67612d68565b5b0492506020810190505b662386f26fc100008310611aa157662386f26fc100008381611a9757611a96612d68565b5b0492506010810190505b6305f5e1008310611aca576305f5e1008381611ac057611abf612d68565b5b0492506008810190505b6127108310611aef576127108381611ae557611ae4612d68565b5b0492506004810190505b60648310611b125760648381611b0857611b07612d68565b5b0492506002810190505b600a8310611b21576001810190505b80915050919050565b600073ffffffffffffffffffffffffffffffffffffffff168273ffffffffffffffffffffffffffffffffffffffff1603611b99576040517f08c379a0000000000000000000000000000000000000000000000000000000008152600401611b9090612ec6565b60405180910390fd5b611ba2816113ba565b15611be2576040517f08c379a0000000000000000000000000000000000000000000000000000000008152600401611bd990612f32565b60405180910390fd5b611bf06000838360016117e9565b611bf9816113ba565b15611c39576040517f08c379a0000000000000000000000000000000000000000000000000000000008152600401611c3090612f32565b60405180910390fd5b6001600360008473ffffffffffffffffffffffffffffffffffffffff1673ffffffffffffffffffffffffffffffffffffffff16815260200190815260200160002060008282540192505081905550816002600083815260200190815260200160002060006101000a81548173ffffffffffffffffffffffffffffffffffffffff021916908373ffffffffffffffffffffffffffffffffffffffff160217905550808273ffffffffffffffffffffffffffffffffffffffff16600073ffffffffffffffffffffffffffffffffffffffff167fddf252ad1be2c89b69c2b068fc378daa952ba7f163c4a11628f55a4df523b3ef60405160405180910390a4611d436000838360016117ef565b5050565b6000808273ffffffffffffffffffffffffffffffffffffffff163b119050919050565b6000604051905090565b600080fd5b600080fd5b60007fffffffff0000000000000000000000000000000000000000000000000000000082169050919050565b611db381611d7e565b8114611dbe57600080fd5b50565b600081359050611dd081611daa565b92915050565b600060208284031215611dec57611deb611d74565b5b6000611dfa84828501611dc1565b91505092915050565b60008115159050919050565b611e1881611e03565b82525050565b6000602082019050611e336000830184611e0f565b92915050565b600081519050919050565b600082825260208201905092915050565b60005b83811015611e73578082015181840152602081019050611e58565b60008484015250505050565b6000601f19601f8301169050919050565b6000611e9b82611e39565b611ea58185611e44565b9350611eb5818560208601611e55565b611ebe81611e7f565b840191505092915050565b60006020820190508181036000830152611ee38184611e90565b905092915050565b6000819050919050565b611efe81611eeb565b8114611f0957600080fd5b50565b600081359050611f1b81611ef5565b92915050565b600060208284031215611f3757611f36611d74565b5b6000611f4584828501611f0c565b91505092915050565b600073ffffffffffffffffffffffffffffffffffffffff82169050919050565b6000611f7982611f4e565b9050919050565b611f8981611f6e565b82525050565b6000602082019050611fa46000830184611f80565b92915050565b611fb381611f6e565b8114611fbe57600080fd5b50565b600081359050611fd081611faa565b92915050565b60008060408385031215611fed57611fec611d74565b5b6000611ffb85828601611fc1565b925050602061200c85828601611f0c565b9150509250929050565b60008060006060848603121561202f5761202e611d74565b5b600061203d86828701611fc1565b935050602061204e86828701611fc1565b925050604061205f86828701611f0c565b9150509250925092565b600080fd5b600080fd5b7f4e487b7100000000000000000000000000000000000000000000000000000000600052604160045260246000fd5b6120ab82611e7f565b810181811067ffffffffffffffff821117156120ca576120c9612073565b5b80604052505050565b60006120dd611d6a565b90506120e982826120a2565b919050565b600067ffffffffffffffff82111561210957612108612073565b5b61211282611e7f565b9050602081019050919050565b82818337600083830152505050565b600061214161213c846120ee565b6120d3565b90508281526020810184848401111561215d5761215c61206e565b5b61216884828561211f565b509392505050565b600082601f83011261218557612184612069565b5b813561219584826020860161212e565b91505092915050565b600080604083850312156121b5576121b4611d74565b5b60006121c385828601611f0c565b925050602083013567ffffffffffffffff8111156121e4576121e3611d79565b5b6121f085828601612170565b9150509250929050565b6000602082840312156122105761220f611d74565b5b600061221e84828501611fc1565b91505092915050565b61223081611eeb565b82525050565b600060208201905061224b6000830184612227565b92915050565b6000819050919050565b61226481612251565b82525050565b7f4e487b7100000000000000000000000000000000000000000000000000000000600052602160045260246000fd5b600281106122aa576122a961226a565b5b50565b60008190506122bb82612299565b919050565b60006122cb826122ad565b9050919050565b6122db816122c0565b82525050565b60006080820190506122f6600083018761225b565b612303602083018661225b565b6123106040830185612227565b61231d60608301846122d2565b95945050505050565b61232f81611e03565b811461233a57600080fd5b50565b60008135905061234c81612326565b92915050565b6000806040838503121561236957612368611d74565b5b600061237785828601611fc1565b92505060206123888582860161233d565b9150509250929050565b61239b81612251565b81146123a657600080fd5b50565b6000813590506123b881612392565b92915050565b600080604083850312156123d5576123d4611d74565b5b60006123e3858286016123a9565b92505060206123f4858286016123a9565b9150509250929050565b600067ffffffffffffffff82111561241957612418612073565b5b61242282611e7f565b9050602081019050919050565b600061244261243d846123fe565b6120d3565b90508281526020810184848401111561245e5761245d61206e565b5b61246984828561211f565b509392505050565b600082601f83011261248657612485612069565b5b813561249684826020860161242f565b91505092915050565b600080600080608085870312156124b9576124b8611d74565b5b60006124c787828801611fc1565b94505060206124d887828801611fc1565b93505060406124e987828801611f0c565b925050606085013567ffffffffffffffff81111561250a57612509611d79565b5b61251687828801612471565b91505092959194509250565b6000806040838503121561253957612538611d74565b5b600061254785828601611fc1565b925050602061255885828601611fc1565b9150509250929050565b7f4e487b7100000000000000000000000000000000000000000000000000000000600052602260045260246000fd5b600060028204905060018216806125a957607f821691505b6020821081036125bc576125bb612562565b5b50919050565b7f4552433732313a20617070726f76616c20746f2063757272656e74206f776e6560008201527f7200000000000000000000000000000000000000000000000000000000000000602082015250565b600061261e602183611e44565b9150612629826125c2565b604082019050919050565b6000602082019050818103600083015261264d81612611565b9050919050565b7f4552433732313a20617070726f76652063616c6c6572206973206e6f7420746f60008201527f6b656e206f776e6572206f7220617070726f76656420666f7220616c6c000000602082015250565b60006126b0603d83611e44565b91506126bb82612654565b604082019050919050565b600060208201905081810360008301526126df816126a3565b9050919050565b7f4552433732313a2063616c6c6572206973206e6f7420746f6b656e206f776e6560008201527f72206f7220617070726f76656400000000000000000000000000000000000000602082015250565b6000612742602d83611e44565b915061274d826126e6565b604082019050919050565b6000602082019050818103600083015261277181612735565b9050919050565b7f50726f6475637420646f6573206e6f7420657869737400000000000000000000600082015250565b60006127ae601683611e44565b91506127b982612778565b602082019050919050565b600060208201905081810360008301526127dd816127a1565b9050919050565b7f4552433732313a20696e76616c696420746f6b656e2049440000000000000000600082015250565b600061281a601883611e44565b9150612825826127e4565b602082019050919050565b600060208201905081810360008301526128498161280d565b9050919050565b7f4552433732313a2061646472657373207a65726f206973206e6f74206120766160008201527f6c6964206f776e65720000000000000000000000000000000000000000000000602082015250565b60006128ac602983611e44565b91506128b782612850565b604082019050919050565b600060208201905081810360008301526128db8161289f565b9050919050565b60006060820190506128f7600083018661225b565b612904602083018561225b565b6129116040830184612227565b949350505050565b600081905092915050565b600061292f82611e39565b6129398185612919565b9350612949818560208601611e55565b80840191505092915050565b60006129618285612924565b915061296d8284612924565b91508190509392505050565b7f4f776e61626c653a206e6577206f776e657220697320746865207a65726f206160008201527f6464726573730000000000000000000000000000000000000000000000000000602082015250565b60006129d5602683611e44565b91506129e082612979565b604082019050919050565b60006020820190508181036000830152612a04816129c8565b9050919050565b7f4552433732313a207472616e736665722066726f6d20696e636f72726563742060008201527f6f776e6572000000000000000000000000000000000000000000000000000000602082015250565b6000612a67602583611e44565b9150612a7282612a0b565b604082019050919050565b60006020820190508181036000830152612a9681612a5a565b9050919050565b7f4552433732313a207472616e7366657220746f20746865207a65726f2061646460008201527f7265737300000000000000000000000000000000000000000000000000000000602082015250565b6000612af9602483611e44565b9150612b0482612a9d565b604082019050919050565b60006020820190508181036000830152612b2881612aec565b9050919050565b7f4f776e61626c653a2063616c6c6572206973206e6f7420746865206f776e6572600082015250565b6000612b65602083611e44565b9150612b7082612b2f565b602082019050919050565b60006020820190508181036000830152612b9481612b58565b9050919050565b7f5265656e7472616e637947756172643a207265656e7472616e742063616c6c00600082015250565b6000612bd1601f83611e44565b9150612bdc82612b9b565b602082019050919050565b60006020820190508181036000830152612c0081612bc4565b9050919050565b7f4552433732313a20617070726f766520746f2063616c6c657200000000000000600082015250565b6000612c3d601983611e44565b9150612c4882612c07565b602082019050919050565b60006020820190508181036000830152612c6c81612c30565b9050919050565b7f4e487b7100000000000000000000000000000000000000000000000000000000600052601160045260246000fd5b6000612cad82611eeb565b9150612cb883611eeb565b9250828201905080821115612cd057612ccf612c73565b5b92915050565b7f4552433732313a207472616e7366657220746f206e6f6e20455243373231526560008201527f63656976657220696d706c656d656e7465720000000000000000000000000000602082015250565b6000612d32603283611e44565b9150612d3d82612cd6565b604082019050919050565b60006020820190508181036000830152612d6181612d25565b9050919050565b7f4e487b7100000000000000000000000000000000000000000000000000000000600052601260045260246000fd5b600081519050919050565b600082825260208201905092915050565b6000612dbe82612d97565b612dc88185612da2565b9350612dd8818560208601611e55565b612de181611e7f565b840191505092915050565b6000608082019050612e016000830187611f80565b612e0e6020830186611f80565b612e1b6040830185612227565b8181036060830152612e2d8184612db3565b905095945050505050565b600081519050612e4781611daa565b92915050565b600060208284031215612e6357612e62611d74565b5b6000612e7184828501612e38565b91505092915050565b7f4552433732313a206d696e7420746f20746865207a65726f2061646472657373600082015250565b6000612eb0602083611e44565b9150612ebb82612e7a565b602082019050919050565b60006020820190508181036000830152612edf81612ea3565b9050919050565b7f4552433732313a20746f6b656e20616c7265616479206d696e74656400000000600082015250565b6000612f1c601c83611e44565b9150612f2782612ee6565b602082019050919050565b60006020820190508181036000830152612f4b81612f0f565b905091905056fea26469706673582212207e8f074fd03b59ae5bf9ccb8730b052174ccee0c7edf66a47bf151344d03ee1864736f6c63430008100033",
  "immutableReferences": {},
  "source": "// SPDX-License-Identifier: MIT\r\npragma solidity ^0.8.0;\r\n\r\nimport \"@openzeppelin/contracts/token/ERC721/ERC721.sol\";\r\nimport \"@openzeppelin/contracts/access/Ownable.sol\";\r\nimport \"@openzeppelin/contracts/security/ReentrancyGuard.sol\";\r\nimport \"@openzeppelin/contracts/utils/math/SafeMath.sol\";\r\n\r\n/**\r\n * @title ProductAuth\r\n * @dev Product Authentication: This contract allows for the verification of product authenticity\r\n * by storing product details as non-fungible tokens (NFTs) on the blockchain.\r\n * Customers can access and verify product history through a mobile app or website.\r\n */\r\ncontract ProductAuth is ERC721, Ownable, ReentrancyGuard {\r\n    using SafeMath for uint256; \r\n\r\n    enum ProductStatus { CREATED, UPDATED }\r\n\r\n\r\n    struct Product {\r\n        bytes32 name;\r\n        bytes32 manufacturer;\r\n        uint256 timestamp;\r\n        ProductStatus status;\r\n    }\r\n\r\n    mapping (uint256 => Product) public products;\r\n    uint256 private tokenIdCounter;\r\n\r\n    event ProductCreated(uint256 indexed tokenId, bytes32 name, bytes32 manufacturer, uint256 timestamp);\r\n    event ProductUpdated(uint256 indexed tokenId, string history);\r\n\r\n    /**\r\n     * @dev Constructor to initialize the ProductAuth contract.\r\n     * It sets up the ERC721 token with the name \"ProductToken\" and symbol \"PTK\".\r\n     */\r\n    constructor() ERC721(\"ProductToken\", \"PTK\") {}\r\n\r\n    /**\r\n     * @dev Creates a new product represented by a unique token ID.\r\n     * Only the contract owner can create products.\r\n     * @param _name The name of the product.\r\n     * @param _manufacturer The name of the manufacturer.\r\n     */\r\n    function createProduct(bytes32 _name, bytes32 _manufacturer) public onlyOwner nonReentrant {\r\n        uint256 tokenId = tokenIdCounter.add(1);\r\n        _safeMint(msg.sender, tokenId);\r\n\r\n        products[tokenId] = Product({\r\n            name: _name,\r\n            manufacturer: _manufacturer,\r\n            timestamp: block.timestamp,\r\n            status: ProductStatus.CREATED\r\n        });\r\n\r\n        tokenIdCounter = tokenIdCounter.add(1);\r\n\r\n        emit ProductCreated(tokenId, _name, _manufacturer, block.timestamp);\r\n    }\r\n\r\n    /**\r\n     * @dev Updates the history/status of an existing product.\r\n     * Only the contract owner can update product details.\r\n     * @param _tokenId The ID of the product token to update.\r\n     * @param _history The updated history/status of the product.\r\n     */\r\n    function updateProduct(uint256 _tokenId, string memory _history) public onlyOwner nonReentrant {\r\n        require(_exists(_tokenId), \"Product does not exist\");\r\n        \r\n        products[_tokenId].status = ProductStatus.UPDATED;\r\n\r\n        emit ProductUpdated(_tokenId, _history);\r\n    }\r\n\r\n    /**\r\n     * @dev Verifies the authenticity of a product by checking its status.\r\n     * @param _tokenId The ID of the product token to verify.\r\n     * @return True if the product is authentic, false otherwise.\r\n     */\r\n    function verifyProduct(uint256 _tokenId) public view returns (bool) {\r\n        return products[_tokenId].status == ProductStatus.UPDATED;\r\n    }\r\n}\r\n",
  "sourcePath": "C:\\Users\\Gaming 15\\authenticheck\\contracts\\AuthentiCheck.sol",
  "compiler": {
    "name": "solc",
    "version": "0.8.16+commit.07a7930e.Emscripten.clang"
  },
  "schemaVersion": "3.4.16",
  "updatedAt": "2023-12-17T16:40:40.017Z",
  "devdoc": {
    "details": "Product Authentication: This contract allows for the verification of product authenticity by storing product details as non-fungible tokens (NFTs) on the blockchain. Customers can access and verify product history through a mobile app or website.",
    "kind": "dev",
    "methods": {
      "approve(address,uint256)": {
        "details": "See {IERC721-approve}."
      },
      "balanceOf(address)": {
        "details": "See {IERC721-balanceOf}."
      },
      "constructor": {
        "details": "Constructor to initialize the ProductAuth contract. It sets up the ERC721 token with the name \"ProductToken\" and symbol \"PTK\"."
      },
      "createProduct(bytes32,bytes32)": {
        "details": "Creates a new product represented by a unique token ID. Only the contract owner can create products.",
        "params": {
          "_manufacturer": "The name of the manufacturer.",
          "_name": "The name of the product."
        }
      },
      "getApproved(uint256)": {
        "details": "See {IERC721-getApproved}."
      },
      "isApprovedForAll(address,address)": {
        "details": "See {IERC721-isApprovedForAll}."
      },
      "name()": {
        "details": "See {IERC721Metadata-name}."
      },
      "owner()": {
        "details": "Returns the address of the current owner."
      },
      "ownerOf(uint256)": {
        "details": "See {IERC721-ownerOf}."
      },
      "renounceOwnership()": {
        "details": "Leaves the contract without owner. It will not be possible to call `onlyOwner` functions. Can only be called by the current owner. NOTE: Renouncing ownership will leave the contract without an owner, thereby disabling any functionality that is only available to the owner."
      },
      "safeTransferFrom(address,address,uint256)": {
        "details": "See {IERC721-safeTransferFrom}."
      },
      "safeTransferFrom(address,address,uint256,bytes)": {
        "details": "See {IERC721-safeTransferFrom}."
      },
      "setApprovalForAll(address,bool)": {
        "details": "See {IERC721-setApprovalForAll}."
      },
      "supportsInterface(bytes4)": {
        "details": "See {IERC165-supportsInterface}."
      },
      "symbol()": {
        "details": "See {IERC721Metadata-symbol}."
      },
      "tokenURI(uint256)": {
        "details": "See {IERC721Metadata-tokenURI}."
      },
      "transferFrom(address,address,uint256)": {
        "details": "See {IERC721-transferFrom}."
      },
      "transferOwnership(address)": {
        "details": "Transfers ownership of the contract to a new account (`newOwner`). Can only be called by the current owner."
      },
      "updateProduct(uint256,string)": {
        "details": "Updates the history/status of an existing product. Only the contract owner can update product details.",
        "params": {
          "_history": "The updated history/status of the product.",
          "_tokenId": "The ID of the product token to update."
        }
      },
      "verifyProduct(uint256)": {
        "details": "Verifies the authenticity of a product by checking its status.",
        "params": {
          "_tokenId": "The ID of the product token to verify."
        },
        "returns": {
          "_0": "True if the product is authentic, false otherwise."
        }
      }
    },
    "title": "ProductAuth",
    "version": 1
  },
  "userdoc": {
    "kind": "user",
    "methods": {},
    "version": 1
  }
}